{
  "abi": [
    {
      "inputs": [
        {
          "internalType": "uint256",
          "name": "initVal",
          "type": "uint256"
        }
      ],
      "stateMutability": "nonpayable",
      "type": "constructor"
    },
    {
      "anonymous": false,
      "inputs": [
        {
          "indexed": false,
          "internalType": "address",
          "name": "_to",
          "type": "address"
        },
        {
          "indexed": false,
          "internalType": "uint256",
          "name": "_amount",
          "type": "uint256"
        }
      ],
      "name": "stored",
      "type": "event"
    },
    {
      "inputs": [],
      "name": "get",
      "outputs": [
        {
          "internalType": "uint256",
          "name": "retVal",
          "type": "uint256"
        }
      ],
      "stateMutability": "view",
      "type": "function"
    },
    {
      "inputs": [
        {
          "internalType": "uint256",
          "name": "x",
          "type": "uint256"
        }
      ],
      "name": "set",
      "outputs": [],
      "stateMutability": "nonpayable",
      "type": "function"
    },
    {
      "inputs": [],
      "name": "storedData",
      "outputs": [
        {
          "internalType": "uint256",
          "name": "",
          "type": "uint256"
        }
      ],
      "stateMutability": "view",
      "type": "function"
    }
  ],
  "devdoc": {
    "kind": "dev",
    "methods": {},
    "version": 1
  },
  "evm": {
    "assembly": "    /* \"SimpleStorage.sol\":58:419  contract SimpleStorage {... */\n  mstore(0x40, 0x80)\n    /* \"SimpleStorage.sol\":154:249  constructor(uint initVal) {... */\n  callvalue\n  dup1\n  iszero\n  tag_1\n  jumpi\n  0x00\n  dup1\n  revert\ntag_1:\n  pop\n  mload(0x40)\n  sub(codesize, bytecodeSize)\n  dup1\n  bytecodeSize\n  dup4\n  codecopy\n  dup2\n  dup2\n  add\n  0x40\n  mstore\n  dup2\n  add\n  swap1\n  tag_2\n  swap2\n  swap1\n  tag_3\n  jump\t// in\ntag_2:\n    /* \"SimpleStorage.sol\":191:218  stored(msg.sender, initVal) */\n  0xc9db20adedc6cf2b5d25252b101ab03e124902a73fcb12b753f3d1aaa2d8f9f5\n    /* \"SimpleStorage.sol\":198:208  msg.sender */\n  caller\n    /* \"SimpleStorage.sol\":210:217  initVal */\n  dup3\n    /* \"SimpleStorage.sol\":191:218  stored(msg.sender, initVal) */\n  mload(0x40)\n  tag_6\n  swap3\n  swap2\n  swap1\n  tag_7\n  jump\t// in\ntag_6:\n  mload(0x40)\n  dup1\n  swap2\n  sub\n  swap1\n  log1\n    /* \"SimpleStorage.sol\":237:244  initVal */\n  dup1\n    /* \"SimpleStorage.sol\":224:234  storedData */\n  0x00\n    /* \"SimpleStorage.sol\":224:244  storedData = initVal */\n  dup2\n  swap1\n  sstore\n  pop\n    /* \"SimpleStorage.sol\":154:249  constructor(uint initVal) {... */\n  pop\n    /* \"SimpleStorage.sol\":58:419  contract SimpleStorage {... */\n  jump(tag_8)\n    /* \"#utility.yul\":88:205   */\ntag_10:\n    /* \"#utility.yul\":197:198   */\n  0x00\n    /* \"#utility.yul\":194:195   */\n  dup1\n    /* \"#utility.yul\":187:199   */\n  revert\n    /* \"#utility.yul\":334:411   */\ntag_12:\n    /* \"#utility.yul\":371:378   */\n  0x00\n    /* \"#utility.yul\":400:405   */\n  dup2\n    /* \"#utility.yul\":389:405   */\n  swap1\n  pop\n    /* \"#utility.yul\":334:411   */\n  swap2\n  swap1\n  pop\n  jump\t// out\n    /* \"#utility.yul\":417:539   */\ntag_13:\n    /* \"#utility.yul\":490:514   */\n  tag_25\n    /* \"#utility.yul\":508:513   */\n  dup2\n    /* \"#utility.yul\":490:514   */\n  tag_12\n  jump\t// in\ntag_25:\n    /* \"#utility.yul\":483:488   */\n  dup2\n    /* \"#utility.yul\":480:515   */\n  eq\n    /* \"#utility.yul\":470:533   */\n  tag_26\n  jumpi\n    /* \"#utility.yul\":529:530   */\n  0x00\n    /* \"#utility.yul\":526:527   */\n  dup1\n    /* \"#utility.yul\":519:531   */\n  revert\n    /* \"#utility.yul\":470:533   */\ntag_26:\n    /* \"#utility.yul\":417:539   */\n  pop\n  jump\t// out\n    /* \"#utility.yul\":545:688   */\ntag_14:\n    /* \"#utility.yul\":602:607   */\n  0x00\n    /* \"#utility.yul\":633:639   */\n  dup2\n    /* \"#utility.yul\":627:640   */\n  mload\n    /* \"#utility.yul\":618:640   */\n  swap1\n  pop\n    /* \"#utility.yul\":649:682   */\n  tag_28\n    /* \"#utility.yul\":676:681   */\n  dup2\n    /* \"#utility.yul\":649:682   */\n  tag_13\n  jump\t// in\ntag_28:\n    /* \"#utility.yul\":545:688   */\n  swap3\n  swap2\n  pop\n  pop\n  jump\t// out\n    /* \"#utility.yul\":694:1045   */\ntag_3:\n    /* \"#utility.yul\":764:770   */\n  0x00\n    /* \"#utility.yul\":813:815   */\n  0x20\n    /* \"#utility.yul\":801:810   */\n  dup3\n    /* \"#utility.yul\":792:799   */\n  dup5\n    /* \"#utility.yul\":788:811   */\n  sub\n    /* \"#utility.yul\":784:816   */\n  slt\n    /* \"#utility.yul\":781:900   */\n  iszero\n  tag_30\n  jumpi\n    /* \"#utility.yul\":819:898   */\n  tag_31\n  tag_10\n  jump\t// in\ntag_31:\n    /* \"#utility.yul\":781:900   */\ntag_30:\n    /* \"#utility.yul\":939:940   */\n  0x00\n    /* \"#utility.yul\":964:1028   */\n  tag_32\n    /* \"#utility.yul\":1020:1027   */\n  dup5\n    /* \"#utility.yul\":1011:1017   */\n  dup3\n    /* \"#utility.yul\":1000:1009   */\n  dup6\n    /* \"#utility.yul\":996:1018   */\n  add\n    /* \"#utility.yul\":964:1028   */\n  tag_14\n  jump\t// in\ntag_32:\n    /* \"#utility.yul\":954:1028   */\n  swap2\n  pop\n    /* \"#utility.yul\":910:1038   */\n  pop\n    /* \"#utility.yul\":694:1045   */\n  swap3\n  swap2\n  pop\n  pop\n  jump\t// out\n    /* \"#utility.yul\":1051:1177   */\ntag_15:\n    /* \"#utility.yul\":1088:1095   */\n  0x00\n    /* \"#utility.yul\":1128:1170   */\n  0xffffffffffffffffffffffffffffffffffffffff\n    /* \"#utility.yul\":1121:1126   */\n  dup3\n    /* \"#utility.yul\":1117:1171   */\n  and\n    /* \"#utility.yul\":1106:1171   */\n  swap1\n  pop\n    /* \"#utility.yul\":1051:1177   */\n  swap2\n  swap1\n  pop\n  jump\t// out\n    /* \"#utility.yul\":1183:1279   */\ntag_16:\n    /* \"#utility.yul\":1220:1227   */\n  0x00\n    /* \"#utility.yul\":1249:1273   */\n  tag_35\n    /* \"#utility.yul\":1267:1272   */\n  dup3\n    /* \"#utility.yul\":1249:1273   */\n  tag_15\n  jump\t// in\ntag_35:\n    /* \"#utility.yul\":1238:1273   */\n  swap1\n  pop\n    /* \"#utility.yul\":1183:1279   */\n  swap2\n  swap1\n  pop\n  jump\t// out\n    /* \"#utility.yul\":1285:1403   */\ntag_17:\n    /* \"#utility.yul\":1372:1396   */\n  tag_37\n    /* \"#utility.yul\":1390:1395   */\n  dup2\n    /* \"#utility.yul\":1372:1396   */\n  tag_16\n  jump\t// in\ntag_37:\n    /* \"#utility.yul\":1367:1370   */\n  dup3\n    /* \"#utility.yul\":1360:1397   */\n  mstore\n    /* \"#utility.yul\":1285:1403   */\n  pop\n  pop\n  jump\t// out\n    /* \"#utility.yul\":1409:1527   */\ntag_18:\n    /* \"#utility.yul\":1496:1520   */\n  tag_39\n    /* \"#utility.yul\":1514:1519   */\n  dup2\n    /* \"#utility.yul\":1496:1520   */\n  tag_12\n  jump\t// in\ntag_39:\n    /* \"#utility.yul\":1491:1494   */\n  dup3\n    /* \"#utility.yul\":1484:1521   */\n  mstore\n    /* \"#utility.yul\":1409:1527   */\n  pop\n  pop\n  jump\t// out\n    /* \"#utility.yul\":1533:1865   */\ntag_7:\n    /* \"#utility.yul\":1654:1658   */\n  0x00\n    /* \"#utility.yul\":1692:1694   */\n  0x40\n    /* \"#utility.yul\":1681:1690   */\n  dup3\n    /* \"#utility.yul\":1677:1695   */\n  add\n    /* \"#utility.yul\":1669:1695   */\n  swap1\n  pop\n    /* \"#utility.yul\":1705:1776   */\n  tag_41\n    /* \"#utility.yul\":1773:1774   */\n  0x00\n    /* \"#utility.yul\":1762:1771   */\n  dup4\n    /* \"#utility.yul\":1758:1775   */\n  add\n    /* \"#utility.yul\":1749:1755   */\n  dup6\n    /* \"#utility.yul\":1705:1776   */\n  tag_17\n  jump\t// in\ntag_41:\n    /* \"#utility.yul\":1786:1858   */\n  tag_42\n    /* \"#utility.yul\":1854:1856   */\n  0x20\n    /* \"#utility.yul\":1843:1852   */\n  dup4\n    /* \"#utility.yul\":1839:1857   */\n  add\n    /* \"#utility.yul\":1830:1836   */\n  dup5\n    /* \"#utility.yul\":1786:1858   */\n  tag_18\n  jump\t// in\ntag_42:\n    /* \"#utility.yul\":1533:1865   */\n  swap4\n  swap3\n  pop\n  pop\n  pop\n  jump\t// out\n    /* \"SimpleStorage.sol\":58:419  contract SimpleStorage {... */\ntag_8:\n  dataSize(sub_0)\n  dup1\n  dataOffset(sub_0)\n  0x00\n  codecopy\n  0x00\n  return\nstop\n\nsub_0: assembly {\n        /* \"SimpleStorage.sol\":58:419  contract SimpleStorage {... */\n      mstore(0x40, 0x80)\n      callvalue\n      dup1\n      iszero\n      tag_1\n      jumpi\n      0x00\n      dup1\n      revert\n    tag_1:\n      pop\n      jumpi(tag_2, lt(calldatasize, 0x04))\n      shr(0xe0, calldataload(0x00))\n      dup1\n      0x2a1afcd9\n      eq\n      tag_3\n      jumpi\n      dup1\n      0x60fe47b1\n      eq\n      tag_4\n      jumpi\n      dup1\n      0x6d4ce63c\n      eq\n      tag_5\n      jumpi\n    tag_2:\n      0x00\n      dup1\n      revert\n        /* \"SimpleStorage.sol\":85:107  uint public storedData */\n    tag_3:\n      tag_6\n      tag_7\n      jump\t// in\n    tag_6:\n      mload(0x40)\n      tag_8\n      swap2\n      swap1\n      tag_9\n      jump\t// in\n    tag_8:\n      mload(0x40)\n      dup1\n      swap2\n      sub\n      swap1\n      return\n        /* \"SimpleStorage.sol\":252:337  function set(uint x) public {... */\n    tag_4:\n      tag_10\n      0x04\n      dup1\n      calldatasize\n      sub\n      dup2\n      add\n      swap1\n      tag_11\n      swap2\n      swap1\n      tag_12\n      jump\t// in\n    tag_11:\n      tag_13\n      jump\t// in\n    tag_10:\n      stop\n        /* \"SimpleStorage.sol\":340:417  function get() view public returns (uint retVal) {... */\n    tag_5:\n      tag_14\n      tag_15\n      jump\t// in\n    tag_14:\n      mload(0x40)\n      tag_16\n      swap2\n      swap1\n      tag_9\n      jump\t// in\n    tag_16:\n      mload(0x40)\n      dup1\n      swap2\n      sub\n      swap1\n      return\n        /* \"SimpleStorage.sol\":85:107  uint public storedData */\n    tag_7:\n      sload(0x00)\n      dup2\n      jump\t// out\n        /* \"SimpleStorage.sol\":252:337  function set(uint x) public {... */\n    tag_13:\n        /* \"SimpleStorage.sol\":291:312  stored(msg.sender, x) */\n      0xc9db20adedc6cf2b5d25252b101ab03e124902a73fcb12b753f3d1aaa2d8f9f5\n        /* \"SimpleStorage.sol\":298:308  msg.sender */\n      caller\n        /* \"SimpleStorage.sol\":310:311  x */\n      dup3\n        /* \"SimpleStorage.sol\":291:312  stored(msg.sender, x) */\n      mload(0x40)\n      tag_18\n      swap3\n      swap2\n      swap1\n      tag_19\n      jump\t// in\n    tag_18:\n      mload(0x40)\n      dup1\n      swap2\n      sub\n      swap1\n      log1\n        /* \"SimpleStorage.sol\":331:332  x */\n      dup1\n        /* \"SimpleStorage.sol\":318:328  storedData */\n      0x00\n        /* \"SimpleStorage.sol\":318:332  storedData = x */\n      dup2\n      swap1\n      sstore\n      pop\n        /* \"SimpleStorage.sol\":252:337  function set(uint x) public {... */\n      pop\n      jump\t// out\n        /* \"SimpleStorage.sol\":340:417  function get() view public returns (uint retVal) {... */\n    tag_15:\n        /* \"SimpleStorage.sol\":376:387  uint retVal */\n      0x00\n        /* \"SimpleStorage.sol\":402:412  storedData */\n      dup1\n      sload\n        /* \"SimpleStorage.sol\":395:412  return storedData */\n      swap1\n      pop\n        /* \"SimpleStorage.sol\":340:417  function get() view public returns (uint retVal) {... */\n      swap1\n      jump\t// out\n        /* \"#utility.yul\":7:84   */\n    tag_21:\n        /* \"#utility.yul\":44:51   */\n      0x00\n        /* \"#utility.yul\":73:78   */\n      dup2\n        /* \"#utility.yul\":62:78   */\n      swap1\n      pop\n        /* \"#utility.yul\":7:84   */\n      swap2\n      swap1\n      pop\n      jump\t// out\n        /* \"#utility.yul\":90:208   */\n    tag_22:\n        /* \"#utility.yul\":177:201   */\n      tag_34\n        /* \"#utility.yul\":195:200   */\n      dup2\n        /* \"#utility.yul\":177:201   */\n      tag_21\n      jump\t// in\n    tag_34:\n        /* \"#utility.yul\":172:175   */\n      dup3\n        /* \"#utility.yul\":165:202   */\n      mstore\n        /* \"#utility.yul\":90:208   */\n      pop\n      pop\n      jump\t// out\n        /* \"#utility.yul\":214:436   */\n    tag_9:\n        /* \"#utility.yul\":307:311   */\n      0x00\n        /* \"#utility.yul\":345:347   */\n      0x20\n        /* \"#utility.yul\":334:343   */\n      dup3\n        /* \"#utility.yul\":330:348   */\n      add\n        /* \"#utility.yul\":322:348   */\n      swap1\n      pop\n        /* \"#utility.yul\":358:429   */\n      tag_36\n        /* \"#utility.yul\":426:427   */\n      0x00\n        /* \"#utility.yul\":415:424   */\n      dup4\n        /* \"#utility.yul\":411:428   */\n      add\n        /* \"#utility.yul\":402:408   */\n      dup5\n        /* \"#utility.yul\":358:429   */\n      tag_22\n      jump\t// in\n    tag_36:\n        /* \"#utility.yul\":214:436   */\n      swap3\n      swap2\n      pop\n      pop\n      jump\t// out\n        /* \"#utility.yul\":523:640   */\n    tag_24:\n        /* \"#utility.yul\":632:633   */\n      0x00\n        /* \"#utility.yul\":629:630   */\n      dup1\n        /* \"#utility.yul\":622:634   */\n      revert\n        /* \"#utility.yul\":769:891   */\n    tag_26:\n        /* \"#utility.yul\":842:866   */\n      tag_41\n        /* \"#utility.yul\":860:865   */\n      dup2\n        /* \"#utility.yul\":842:866   */\n      tag_21\n      jump\t// in\n    tag_41:\n        /* \"#utility.yul\":835:840   */\n      dup2\n        /* \"#utility.yul\":832:867   */\n      eq\n        /* \"#utility.yul\":822:885   */\n      tag_42\n      jumpi\n        /* \"#utility.yul\":881:882   */\n      0x00\n        /* \"#utility.yul\":878:879   */\n      dup1\n        /* \"#utility.yul\":871:883   */\n      revert\n        /* \"#utility.yul\":822:885   */\n    tag_42:\n        /* \"#utility.yul\":769:891   */\n      pop\n      jump\t// out\n        /* \"#utility.yul\":897:1036   */\n    tag_27:\n        /* \"#utility.yul\":943:948   */\n      0x00\n        /* \"#utility.yul\":981:987   */\n      dup2\n        /* \"#utility.yul\":968:988   */\n      calldataload\n        /* \"#utility.yul\":959:988   */\n      swap1\n      pop\n        /* \"#utility.yul\":997:1030   */\n      tag_44\n        /* \"#utility.yul\":1024:1029   */\n      dup2\n        /* \"#utility.yul\":997:1030   */\n      tag_26\n      jump\t// in\n    tag_44:\n        /* \"#utility.yul\":897:1036   */\n      swap3\n      swap2\n      pop\n      pop\n      jump\t// out\n        /* \"#utility.yul\":1042:1371   */\n    tag_12:\n        /* \"#utility.yul\":1101:1107   */\n      0x00\n        /* \"#utility.yul\":1150:1152   */\n      0x20\n        /* \"#utility.yul\":1138:1147   */\n      dup3\n        /* \"#utility.yul\":1129:1136   */\n      dup5\n        /* \"#utility.yul\":1125:1148   */\n      sub\n        /* \"#utility.yul\":1121:1153   */\n      slt\n        /* \"#utility.yul\":1118:1237   */\n      iszero\n      tag_46\n      jumpi\n        /* \"#utility.yul\":1156:1235   */\n      tag_47\n      tag_24\n      jump\t// in\n    tag_47:\n        /* \"#utility.yul\":1118:1237   */\n    tag_46:\n        /* \"#utility.yul\":1276:1277   */\n      0x00\n        /* \"#utility.yul\":1301:1354   */\n      tag_48\n        /* \"#utility.yul\":1346:1353   */\n      dup5\n        /* \"#utility.yul\":1337:1343   */\n      dup3\n        /* \"#utility.yul\":1326:1335   */\n      dup6\n        /* \"#utility.yul\":1322:1344   */\n      add\n        /* \"#utility.yul\":1301:1354   */\n      tag_27\n      jump\t// in\n    tag_48:\n        /* \"#utility.yul\":1291:1354   */\n      swap2\n      pop\n        /* \"#utility.yul\":1247:1364   */\n      pop\n        /* \"#utility.yul\":1042:1371   */\n      swap3\n      swap2\n      pop\n      pop\n      jump\t// out\n        /* \"#utility.yul\":1377:1503   */\n    tag_28:\n        /* \"#utility.yul\":1414:1421   */\n      0x00\n        /* \"#utility.yul\":1454:1496   */\n      0xffffffffffffffffffffffffffffffffffffffff\n        /* \"#utility.yul\":1447:1452   */\n      dup3\n        /* \"#utility.yul\":1443:1497   */\n      and\n        /* \"#utility.yul\":1432:1497   */\n      swap1\n      pop\n        /* \"#utility.yul\":1377:1503   */\n      swap2\n      swap1\n      pop\n      jump\t// out\n        /* \"#utility.yul\":1509:1605   */\n    tag_29:\n        /* \"#utility.yul\":1546:1553   */\n      0x00\n        /* \"#utility.yul\":1575:1599   */\n      tag_51\n        /* \"#utility.yul\":1593:1598   */\n      dup3\n        /* \"#utility.yul\":1575:1599   */\n      tag_28\n      jump\t// in\n    tag_51:\n        /* \"#utility.yul\":1564:1599   */\n      swap1\n      pop\n        /* \"#utility.yul\":1509:1605   */\n      swap2\n      swap1\n      pop\n      jump\t// out\n        /* \"#utility.yul\":1611:1729   */\n    tag_30:\n        /* \"#utility.yul\":1698:1722   */\n      tag_53\n        /* \"#utility.yul\":1716:1721   */\n      dup2\n        /* \"#utility.yul\":1698:1722   */\n      tag_29\n      jump\t// in\n    tag_53:\n        /* \"#utility.yul\":1693:1696   */\n      dup3\n        /* \"#utility.yul\":1686:1723   */\n      mstore\n        /* \"#utility.yul\":1611:1729   */\n      pop\n      pop\n      jump\t// out\n        /* \"#utility.yul\":1735:2067   */\n    tag_19:\n        /* \"#utility.yul\":1856:1860   */\n      0x00\n        /* \"#utility.yul\":1894:1896   */\n      0x40\n        /* \"#utility.yul\":1883:1892   */\n      dup3\n        /* \"#utility.yul\":1879:1897   */\n      add\n        /* \"#utility.yul\":1871:1897   */\n      swap1\n      pop\n        /* \"#utility.yul\":1907:1978   */\n      tag_55\n        /* \"#utility.yul\":1975:1976   */\n      0x00\n        /* \"#utility.yul\":1964:1973   */\n      dup4\n        /* \"#utility.yul\":1960:1977   */\n      add\n        /* \"#utility.yul\":1951:1957   */\n      dup6\n        /* \"#utility.yul\":1907:1978   */\n      tag_30\n      jump\t// in\n    tag_55:\n        /* \"#utility.yul\":1988:2060   */\n      tag_56\n        /* \"#utility.yul\":2056:2058   */\n      0x20\n        /* \"#utility.yul\":2045:2054   */\n      dup4\n        /* \"#utility.yul\":2041:2059   */\n      add\n        /* \"#utility.yul\":2032:2038   */\n      dup5\n        /* \"#utility.yul\":1988:2060   */\n      tag_22\n      jump\t// in\n    tag_56:\n        /* \"#utility.yul\":1735:2067   */\n      swap4\n      swap3\n      pop\n      pop\n      pop\n      jump\t// out\n\n    auxdata: 0xa2646970667358221220881b45c1cf7b5f362b3ed96b4caba8e72b8999be66620494dacdefbf7555593a64736f6c634300080a0033\n}\n",
    "bytecode": {
      "linkReferences": {},
      "object": "608060405234801561001057600080fd5b5060405161038a38038061038a833981810160405281019061003291906100b3565b7fc9db20adedc6cf2b5d25252b101ab03e124902a73fcb12b753f3d1aaa2d8f9f53382604051610063929190610130565b60405180910390a18060008190555050610159565b600080fd5b6000819050919050565b6100908161007d565b811461009b57600080fd5b50565b6000815190506100ad81610087565b92915050565b6000602082840312156100c9576100c8610078565b5b60006100d78482850161009e565b91505092915050565b600073ffffffffffffffffffffffffffffffffffffffff82169050919050565b600061010b826100e0565b9050919050565b61011b81610100565b82525050565b61012a8161007d565b82525050565b60006040820190506101456000830185610112565b6101526020830184610121565b9392505050565b610222806101686000396000f3fe608060405234801561001057600080fd5b50600436106100415760003560e01c80632a1afcd91461004657806360fe47b1146100645780636d4ce63c14610080575b600080fd5b61004e61009e565b60405161005b9190610109565b60405180910390f35b61007e60048036038101906100799190610155565b6100a4565b005b6100886100e7565b6040516100959190610109565b60405180910390f35b60005481565b7fc9db20adedc6cf2b5d25252b101ab03e124902a73fcb12b753f3d1aaa2d8f9f533826040516100d59291906101c3565b60405180910390a18060008190555050565b60008054905090565b6000819050919050565b610103816100f0565b82525050565b600060208201905061011e60008301846100fa565b92915050565b600080fd5b610132816100f0565b811461013d57600080fd5b50565b60008135905061014f81610129565b92915050565b60006020828403121561016b5761016a610124565b5b600061017984828501610140565b91505092915050565b600073ffffffffffffffffffffffffffffffffffffffff82169050919050565b60006101ad82610182565b9050919050565b6101bd816101a2565b82525050565b60006040820190506101d860008301856101b4565b6101e560208301846100fa565b939250505056fea2646970667358221220881b45c1cf7b5f362b3ed96b4caba8e72b8999be66620494dacdefbf7555593a64736f6c634300080a0033",
      "opcodes": "PUSH1 0x80 PUSH1 0x40 MSTORE CALLVALUE DUP1 ISZERO PUSH2 0x10 JUMPI PUSH1 0x0 DUP1 REVERT JUMPDEST POP PUSH1 0x40 MLOAD PUSH2 0x38A CODESIZE SUB DUP1 PUSH2 0x38A DUP4 CODECOPY DUP2 DUP2 ADD PUSH1 0x40 MSTORE DUP2 ADD SWAP1 PUSH2 0x32 SWAP2 SWAP1 PUSH2 0xB3 JUMP JUMPDEST PUSH32 0xC9DB20ADEDC6CF2B5D25252B101AB03E124902A73FCB12B753F3D1AAA2D8F9F5 CALLER DUP3 PUSH1 0x40 MLOAD PUSH2 0x63 SWAP3 SWAP2 SWAP1 PUSH2 0x130 JUMP JUMPDEST PUSH1 0x40 MLOAD DUP1 SWAP2 SUB SWAP1 LOG1 DUP1 PUSH1 0x0 DUP2 SWAP1 SSTORE POP POP PUSH2 0x159 JUMP JUMPDEST PUSH1 0x0 DUP1 REVERT JUMPDEST PUSH1 0x0 DUP2 SWAP1 POP SWAP2 SWAP1 POP JUMP JUMPDEST PUSH2 0x90 DUP2 PUSH2 0x7D JUMP JUMPDEST DUP2 EQ PUSH2 0x9B JUMPI PUSH1 0x0 DUP1 REVERT JUMPDEST POP JUMP JUMPDEST PUSH1 0x0 DUP2 MLOAD SWAP1 POP PUSH2 0xAD DUP2 PUSH2 0x87 JUMP JUMPDEST SWAP3 SWAP2 POP POP JUMP JUMPDEST PUSH1 0x0 PUSH1 0x20 DUP3 DUP5 SUB SLT ISZERO PUSH2 0xC9 JUMPI PUSH2 0xC8 PUSH2 0x78 JUMP JUMPDEST JUMPDEST PUSH1 0x0 PUSH2 0xD7 DUP5 DUP3 DUP6 ADD PUSH2 0x9E JUMP JUMPDEST SWAP2 POP POP SWAP3 SWAP2 POP POP JUMP JUMPDEST PUSH1 0x0 PUSH20 0xFFFFFFFFFFFFFFFFFFFFFFFFFFFFFFFFFFFFFFFF DUP3 AND SWAP1 POP SWAP2 SWAP1 POP JUMP JUMPDEST PUSH1 0x0 PUSH2 0x10B DUP3 PUSH2 0xE0 JUMP JUMPDEST SWAP1 POP SWAP2 SWAP1 POP JUMP JUMPDEST PUSH2 0x11B DUP2 PUSH2 0x100 JUMP JUMPDEST DUP3 MSTORE POP POP JUMP JUMPDEST PUSH2 0x12A DUP2 PUSH2 0x7D JUMP JUMPDEST DUP3 MSTORE POP POP JUMP JUMPDEST PUSH1 0x0 PUSH1 0x40 DUP3 ADD SWAP1 POP PUSH2 0x145 PUSH1 0x0 DUP4 ADD DUP6 PUSH2 0x112 JUMP JUMPDEST PUSH2 0x152 PUSH1 0x20 DUP4 ADD DUP5 PUSH2 0x121 JUMP JUMPDEST SWAP4 SWAP3 POP POP POP JUMP JUMPDEST PUSH2 0x222 DUP1 PUSH2 0x168 PUSH1 0x0 CODECOPY PUSH1 0x0 RETURN INVALID PUSH1 0x80 PUSH1 0x40 MSTORE CALLVALUE DUP1 ISZERO PUSH2 0x10 JUMPI PUSH1 0x0 DUP1 REVERT JUMPDEST POP PUSH1 0x4 CALLDATASIZE LT PUSH2 0x41 JUMPI PUSH1 0x0 CALLDATALOAD PUSH1 0xE0 SHR DUP1 PUSH4 0x2A1AFCD9 EQ PUSH2 0x46 JUMPI DUP1 PUSH4 0x60FE47B1 EQ PUSH2 0x64 JUMPI DUP1 PUSH4 0x6D4CE63C EQ PUSH2 0x80 JUMPI JUMPDEST PUSH1 0x0 DUP1 REVERT JUMPDEST PUSH2 0x4E PUSH2 0x9E JUMP JUMPDEST PUSH1 0x40 MLOAD PUSH2 0x5B SWAP2 SWAP1 PUSH2 0x109 JUMP JUMPDEST PUSH1 0x40 MLOAD DUP1 SWAP2 SUB SWAP1 RETURN JUMPDEST PUSH2 0x7E PUSH1 0x4 DUP1 CALLDATASIZE SUB DUP2 ADD SWAP1 PUSH2 0x79 SWAP2 SWAP1 PUSH2 0x155 JUMP JUMPDEST PUSH2 0xA4 JUMP JUMPDEST STOP JUMPDEST PUSH2 0x88 PUSH2 0xE7 JUMP JUMPDEST PUSH1 0x40 MLOAD PUSH2 0x95 SWAP2 SWAP1 PUSH2 0x109 JUMP JUMPDEST PUSH1 0x40 MLOAD DUP1 SWAP2 SUB SWAP1 RETURN JUMPDEST PUSH1 0x0 SLOAD DUP2 JUMP JUMPDEST PUSH32 0xC9DB20ADEDC6CF2B5D25252B101AB03E124902A73FCB12B753F3D1AAA2D8F9F5 CALLER DUP3 PUSH1 0x40 MLOAD PUSH2 0xD5 SWAP3 SWAP2 SWAP1 PUSH2 0x1C3 JUMP JUMPDEST PUSH1 0x40 MLOAD DUP1 SWAP2 SUB SWAP1 LOG1 DUP1 PUSH1 0x0 DUP2 SWAP1 SSTORE POP POP JUMP JUMPDEST PUSH1 0x0 DUP1 SLOAD SWAP1 POP SWAP1 JUMP JUMPDEST PUSH1 0x0 DUP2 SWAP1 POP SWAP2 SWAP1 POP JUMP JUMPDEST PUSH2 0x103 DUP2 PUSH2 0xF0 JUMP JUMPDEST DUP3 MSTORE POP POP JUMP JUMPDEST PUSH1 0x0 PUSH1 0x20 DUP3 ADD SWAP1 POP PUSH2 0x11E PUSH1 0x0 DUP4 ADD DUP5 PUSH2 0xFA JUMP JUMPDEST SWAP3 SWAP2 POP POP JUMP JUMPDEST PUSH1 0x0 DUP1 REVERT JUMPDEST PUSH2 0x132 DUP2 PUSH2 0xF0 JUMP JUMPDEST DUP2 EQ PUSH2 0x13D JUMPI PUSH1 0x0 DUP1 REVERT JUMPDEST POP JUMP JUMPDEST PUSH1 0x0 DUP2 CALLDATALOAD SWAP1 POP PUSH2 0x14F DUP2 PUSH2 0x129 JUMP JUMPDEST SWAP3 SWAP2 POP POP JUMP JUMPDEST PUSH1 0x0 PUSH1 0x20 DUP3 DUP5 SUB SLT ISZERO PUSH2 0x16B JUMPI PUSH2 0x16A PUSH2 0x124 JUMP JUMPDEST JUMPDEST PUSH1 0x0 PUSH2 0x179 DUP5 DUP3 DUP6 ADD PUSH2 0x140 JUMP JUMPDEST SWAP2 POP POP SWAP3 SWAP2 POP POP JUMP JUMPDEST PUSH1 0x0 PUSH20 0xFFFFFFFFFFFFFFFFFFFFFFFFFFFFFFFFFFFFFFFF DUP3 AND SWAP1 POP SWAP2 SWAP1 POP JUMP JUMPDEST PUSH1 0x0 PUSH2 0x1AD DUP3 PUSH2 0x182 JUMP JUMPDEST SWAP1 POP SWAP2 SWAP1 POP JUMP JUMPDEST PUSH2 0x1BD DUP2 PUSH2 0x1A2 JUMP JUMPDEST DUP3 MSTORE POP POP JUMP JUMPDEST PUSH1 0x0 PUSH1 0x40 DUP3 ADD SWAP1 POP PUSH2 0x1D8 PUSH1 0x0 DUP4 ADD DUP6 PUSH2 0x1B4 JUMP JUMPDEST PUSH2 0x1E5 PUSH1 0x20 DUP4 ADD DUP5 PUSH2 0xFA JUMP JUMPDEST SWAP4 SWAP3 POP POP POP JUMP INVALID LOG2 PUSH5 0x6970667358 0x22 SLT KECCAK256 DUP9 SHL GASLIMIT 0xC1 0xCF PUSH28 0x5F362B3ED96B4CABA8E72B8999BE66620494DACDEFBF7555593A6473 PUSH16 0x6C634300080A00330000000000000000 "
    },
    "gasEstimates": {
      "creation": {
        "codeDepositCost": "109200",
        "executionCost": "infinite",
        "totalCost": "infinite"
      },
      "external": {
        "get()": "2459",
        "set(uint256)": "infinite",
        "storedData()": "2407"
      }
    },
    "methodIdentifiers": {
      "get()": "6d4ce63c",
      "set(uint256)": "60fe47b1",
      "storedData()": "2a1afcd9"
    }
  },
  "storageLayout": {
    "storage": [
      {
        "astId": 33,
        "contract": "SimpleStorage.sol:SimpleStorage",
        "label": "storedData",
        "offset": 0,
        "slot": "0",
        "type": "t_uint256"
      }
    ],
    "types": {
      "t_uint256": {
        "encoding": "inplace",
        "label": "uint256",
        "numberOfBytes": "32"
      }
    }
  },
  "userdoc": {
    "kind": "user",
    "methods": {},
    "version": 1
  }
}