{
    "_format": "hh-sol-artifact-1",
    "contractName": "SimpleContract",
    "sourceName": "SimpleContract.sol",
    "abi": [
        {
            "inputs": [],
            "name": "message",
            "outputs": [
                {
                    "internalType": "string",
                    "name": "",
                    "type": "string"
                }
            ],
            "stateMutability": "view",
            "type": "function"
        },
        {
            "inputs": [
                {
                    "internalType": "string",
                    "name": "newMessage",
                    "type": "string"
                }
            ],
            "name": "update",
            "outputs": [],
            "stateMutability": "nonpayable",
            "type": "function"
        }
    ],
    "bytecode": "0x608060405234801561001057600080fd5b50610678806100206000396000f3fe608060405234801561001057600080fd5b50600436106100365760003560e01c80633d7403a31461003b578063e21f37ce14610057575b600080fd5b61005560048036038101906100509190610270565b610075565b005b61005f610088565b60405161006c9190610338565b60405180910390f35b80600090816100849190610570565b5050565b6000805461009590610389565b80601f01602080910402602001604051908101604052809291908181526020018280546100c190610389565b801561010e5780601f106100e35761010080835404028352916020019161010e565b820191906000526020600020905b8154815290600101906020018083116100f157829003601f168201915b505050505081565b6000604051905090565b600080fd5b600080fd5b600080fd5b600080fd5b6000601f19601f8301169050919050565b7f4e487b7100000000000000000000000000000000000000000000000000000000600052604160045260246000fd5b61017d82610134565b810181811067ffffffffffffffff8211171561019c5761019b610145565b5b80604052505050565b60006101af610116565b90506101bb8282610174565b919050565b600067ffffffffffffffff8211156101db576101da610145565b5b6101e482610134565b9050602081019050919050565b82818337600083830152505050565b600061021361020e846101c0565b6101a5565b90508281526020810184848401111561022f5761022e61012f565b5b61023a8482856101f1565b509392505050565b600082601f8301126102575761025661012a565b5b8135610267848260208601610200565b91505092915050565b60006020828403121561028657610285610120565b5b600082013567ffffffffffffffff8111156102a4576102a3610125565b5b6102b084828501610242565b91505092915050565b600081519050919050565b600082825260208201905092915050565b60005b838110156102f35780820151818401526020810190506102d8565b60008484015250505050565b600061030a826102b9565b61031481856102c4565b93506103248185602086016102d5565b61032d81610134565b840191505092915050565b6000602082019050818103600083015261035281846102ff565b905092915050565b7f4e487b7100000000000000000000000000000000000000000000000000000000600052602260045260246000fd5b600060028204905060018216806103a157607f821691505b6020821081036103b4576103b361035a565b5b50919050565b60008190508160005260206000209050919050565b60006020601f8301049050919050565b600082821b905092915050565b60006008830261041c7fffffffffffffffffffffffffffffffffffffffffffffffffffffffffffffffff826103df565b61042686836103df565b95508019841693508086168417925050509392505050565b6000819050919050565b6000819050919050565b600061046d6104686104638461043e565b610448565b61043e565b9050919050565b6000819050919050565b61048783610452565b61049b61049382610474565b8484546103ec565b825550505050565b600090565b6104b06104a3565b6104bb81848461047e565b505050565b5b818110156104df576104d46000826104a8565b6001810190506104c1565b5050565b601f821115610524576104f5816103ba565b6104fe846103cf565b8101602085101561050d578190505b610521610519856103cf565b8301826104c0565b50505b505050565b600082821c905092915050565b600061054760001984600802610529565b1980831691505092915050565b60006105608383610536565b9150826002028217905092915050565b610579826102b9565b67ffffffffffffffff81111561059257610591610145565b5b61059c8254610389565b6105a78282856104e3565b600060209050601f8311600181146105da57600084156105c8578287015190505b6105d28582610554565b86555061063a565b601f1984166105e8866103ba565b60005b82811015610610578489015182556001820191506020850194506020810190506105eb565b8683101561062d5784890151610629601f891682610536565b8355505b6001600288020188555050505b50505050505056fea264697066735822122059f4de890aa64e480effbee83e72543db46055388f8f3c8eaf8e1bb221a55f8e64736f6c63430008140033",
    "linkReferences": {},
    "deployedLinkReferences": {}
}